:100000000C9463000C948B000C948B000C948B006C
:100010000C948B000C948B000C948B000C948B0034
:100020000C948B000C948B000C948B000C948B0024
:100030000C948B000C948B000C948B000C948B0014
:100040000C94E6030C948B000C94B4030C948E0374
:100050000C948B000C948B000C948B000C948B00F4
:100060000C948B000C948B000000000024002700EF
:100070002A000000000023002600290000000000E4
:10008000250028002B0004040404040404040202D4
:100090000202020203030303030301020408102007
:1000A0004080010204081020010204081020000012
:1000B0000008000201000003040700000000000027
:1000C00000003004720711241FBECFEFD8E0DEBF5E
:1000D000CDBF11E0A0E0B1E0E4EBF4E102C0059097
:1000E0000D92AC35B107D9F722E0ACE5B1E001C023
:1000F0001D92A132B207E1F710E0C2E6D0E004C0E1
:100100002197FE010E947E07C136D107C9F70E94E0
:100110006E040C944D0A0C94000020911B02309147
:100120001C028217930738F42091170230911802AD
:100130002115310529F410926D018DE691E00895A5
:10014000820F931F08950895CF92DF92EF92FF924E
:100150000F931F93CF93DF936C017A018B01C0E063
:10016000D0E0CE15DF0589F0D8016D918D01D60163
:10017000ED91FC910190F081E02DC6010995892B4C
:1001800011F47E0102C02196ECCFC701DF91CF911F
:100190001F910F91FF90EF90DF90CF900895FC0199
:1001A000918D828D981761F0828DDF01A80FB11DAE
:1001B0005D968C91928D9F5F9F73928F90E00895D2
:1001C0008FEF9FEF0895FC01918D828D981731F08C
:1001D000828DE80FF11D858D90E008958FEF9FEFE0
:1001E0000895FC01918D228D892F90E0805C9F4FB6
:1001F000821B91098F73992708958EE691E00E94E2
:10020000F10021E0892B09F420E0822F0895FC0100
:10021000848DDF01A80FB11DA35ABF4F2C91848D8F
:1002200090E001968F739927848FA689B7892C93C4
:10023000A089B1898C9180648C93938D848D98135F
:1002400006C00288F389E02D80818F7D8083089528
:10025000EF92FF920F931F93CF93DF93EC0181E016
:10026000888F9B8D8C8D981305C0E889F9898081D2
:1002700085FD24C0F62E0B8D10E00F5F1F4F0F730E
:100280001127E02E8C8DE8120CC00FB607FCFACFB8
:10029000E889F989808185FFF5CFCE010E940701A9
:1002A000F1CF8B8DFE01E80FF11DE35AFF4FF08275
:1002B0000B8FEA89FB898081806207C0EE89FF8904
:1002C0006083E889F98980818064808381E090E09F
:1002D000DF91CF911F910F91FF90EF900895CF93F1
:1002E000DF93EC01888D8823C9F0EA89FB8980813E
:1002F00085FD05C0A889B9898C9186FD0FC00FB610
:1003000007FCF5CF808185FFF2CFA889B9898C9150
:1003100085FFEDCFCE010E940701E7CFDF91CF919E
:10032000089580E090E0892B29F00E94FD00811162
:100330000C9400000895833081F028F4813099F006
:100340008230A1F008958730A9F08830B9F0843068
:10035000D1F4809180008F7D03C0809180008F77E1
:1003600080938000089584B58F7702C084B58F7D17
:1003700084BD08958091B0008F7703C08091B00054
:100380008F7D8093B00008951F93CF93DF93E7EBA9
:10039000F0E09491E3EAF0E0D491EFE8F0E0C4916A
:1003A000CC23D9F0182F992319F0892F0E949B0193
:1003B000EC2FF0E0EE0FFF1FE458FF4FA591B49132
:1003C0008FB7F894111105C09C91ED2FE095E923AA
:1003D00002C0EC91ED2BEC938FBFDF91CF911F9179
:1003E0000895CF93DF93282F30E0F901E255FF4FB6
:1003F0008491F901E656FF4FD491F901EA57FF4F76
:10040000C491CC2391F081110E949B01EC2FF0E06C
:10041000EE0FFF1FEE58FF4FA591B491EC91ED2325
:1004200081E090E021F480E002C080E090E0DF9184
:10043000CF910895CF93DF9390E0FC01E656FF4FF4
:100440002491FC01EA57FF4F8491882361F190E0E9
:10045000880F991FFC01E859FF4FC591D491FC0109
:10046000E458FF4FA591B491611109C09FB7F8946A
:100470008881209582238883EC912E230BC06230E3
:1004800061F49FB7F8943881822F80958323888305
:10049000EC912E2B2C939FBF06C08FB7F894E88168
:1004A0002E2B28838FBFDF91CF910895CF93DF93B9
:1004B000FC0144815581608171818EE691E00E944A
:1004C000A400EC0142E050E066E171E08EE691E0CC
:1004D0000E94A4008C0F9D1FDF91CF910895CF93B0
:1004E000DF93009779F0FC0101900020E9F7319744
:1004F000AF01481B590BBC018EE691E00E94A4009D
:10050000EC0102C0C0E0D0E042E050E066E171E002
:100510008EE691E00E94A4008C0F9D1FDF91CF9189
:100520000895CF93DF93EC0188819981009711F0B2
:100530000E941908198218821D821C821B821A824D
:10054000DF91CF910895FC01808191810C9419086D
:100550000E947B090F931F93CF93DF93EC01888157
:100560009981009729F02A813B812617370788F463
:100570008B016F5F7F4F0E94B108009761F09983F4
:1005800088831B830A832C813D81232B11F4FC017A
:10059000108281E001C080E0DF91CF911F910F9127
:1005A0000895EF92FF920F931F93CF93DF93FC0177
:1005B000248135816115710511F480E019C0411560
:1005C0005105A9F07B01EC018A01020F131FB8014C
:1005D0000E94AA02882389F3288139818C819D8118
:1005E000B701820F931F0E9492091D830C8381E043
:1005F000DF91CF911F910F91FF90EF900895CF93CE
:10060000DF93EC01FB0144815581608171810E947F
:10061000D102811103C0CE010E949102CE01DF916F
:10062000CF910895EF92FF920F931F93CF93DF9393
:10063000EC017B018A01BA010E94AA02811104C067
:10064000CE010E94910207C01D830C83B7018881EF
:1006500099810E949209CE01DF91CF911F910F9154
:10066000FF90EF900895CF93DF93EC016115710532
:1006700059F0FB0101900020E9F73197AF01461BCB
:10068000570B0E94120302C00E949102CE01DF911B
:10069000CF910895CF93DF9300D0CDB7DEB7FC01A3
:1006A00011821082138212821582148269831A8247
:1006B000BE016F5F7F4F0E9433030F900F90DF9159
:1006C000CF910895CF93DF93EC01FB018617970735
:1006D00061F0608171816115710529F04481558156
:1006E0000E94120302C00E949102CE01DF91CF91BD
:1006F0000895FC01118210821382128215821482E5
:100700006115710551F0FB0101900020E9F7319767
:10071000AF01461B570B0C94120308951F920F92C2
:100720000FB60F9211242F933F934F935F936F93C4
:100730007F938F939F93AF93BF93EF93FF938EE637
:1007400091E00E940701FF91EF91BF91AF919F91BE
:100750008F917F916F915F914F913F912F910F906A
:100760000FBE0F901F9018951F920F920FB60F9209
:1007700011242F938F939F93EF93FF93E0917E012A
:10078000F0917F018081E0918401F091850182FDEB
:1007900012C09081809187018F5F8F7320918801B3
:1007A000821751F0E0918701F0E0E259FE4F958FFA
:1007B0008093870101C08081FF91EF919F918F917C
:1007C0002F910F900FBE0F901F9018951F920F92B0
:1007D0000FB60F9211242F933F938F939F93AF9354
:1007E000BF938091610190916201A0916301B091EA
:1007F00064013091600123E0230F2D3720F401962E
:10080000A11DB11D05C026E8230F0296A11DB11D33
:10081000209360018093610190936201A093630132
:10082000B093640180915C0190915D01A0915E01A3
:10083000B0915F010196A11DB11D80935C01909361
:100840005D01A0935E01B0935F01BF91AF919F9155
:100850008F913F912F910F900FBE0F901F90189581
:10086000EEE6F1E01382128288EE93E0A0E0B0E0C1
:1008700084839583A683B7838AE091E09183808304
:1008800085EC90E09587848784EC90E09787868755
:1008900080EC90E0918B808B81EC90E0938B828B4D
:1008A00082EC90E0958B848B86EC90E0978B868B26
:1008B000118E128E138E148E68E171E087E192E042
:1008C0000E94790368E171E081E192E00E9479037E
:1008D00068E171E08BE092E00C947903CF93DF93B1
:1008E000CDB7DEB7A4970FB6F894DEBF0FBECDBF6D
:1008F000789484B5826084BD84B5816084BD85B5FB
:10090000826085BD85B5816085BD80916E00816006
:1009100080936E00109281008091810082608093AC
:1009200081008091810081608093810080918000AE
:100930008160809380008091B10084608093B100D9
:100940008091B00081608093B00080917A008460D3
:1009500080937A0080917A00826080937A008091FF
:100960007A00816080937A0080917A008068809319
:100970007A001092C100E0917E01F0917F0182E047
:100980008083E0917A01F0917B011082E0917C01FB
:10099000F0917D0180E1808310928601E0918201D7
:1009A000F091830186E08083E0918001F0918101E4
:1009B000808180618083E0918001F091810180815C
:1009C00088608083E0918001F0918101808180685E
:1009D0008083E0918001F091810180818F7D80830F
:1009E00060E084E00E941A0260E085E00E941A0242
:1009F00061E088E00E941A0289E191E00E946F02A2
:100A0000BB24B3948FB7F894C0906101D090620179
:100A1000E0906301F09064018FBF80916801909134
:100A20006901A0916A01B0916B01A7019601281B91
:100A3000390B4A0B5B0B2233310541055105E0F0C0
:100A40000091670110E085E00E94F1010817190785
:100A500009F0CFC10091660110E084E00E94F1012D
:100A60000817190709F0C5C1C0926801D092690141
:100A7000E0926A01F0926B0184E00E94F101209102
:100A8000660130E08217930721F0809165018111A2
:100A9000B3C185E00E94F1012091670130E0821727
:100AA000930721F0809165018111DFC18EE691E00D
:100AB0000E94F100181619060CF024C18EE691E090
:100AC0000E94CF00182F8A3009F003C1E09017026E
:100AD000F0901802E114F10409F444C000911B02E3
:100AE00010911C0201151105E9F1470164013FEF66
:100AF000831A930AF6018081082E000C990B0E943C
:100B0000FA09892B99F7015011090E0D1F1DF801E3
:100B10008081082E000C990B0E94FA09892B89F418
:100B2000A8014F5F5F4F4C195D0950931C02409321
:100B30001B02EC14FD0458F4B601C7010E948009A1
:100B400006C00C151D0560F301501109E0CFE091BE
:100B50001702F091180280911B0290911C02E80F7D
:100B6000F91F108282E090E00E948D00FC016081FC
:100B7000CE014F960E944A0381E090E00E948D00D2
:100B8000FC016081CE0149960E944A0380E090E01A
:100B90000E948D00FC016081CE0101960E944A03F3
:100BA0001C8A1B8A1E8A1D8A188E1F8ABE016F5FCF
:100BB0007F4FCE0143960E946203BE01675E7F4F66
:100BC000CE0143960E94FF02BE01615E7F4F0E94EC
:100BD000FF02BC0181E192E00E946203CE014396D4
:100BE0000E94A302CE0101960E94A302CE01499663
:100BF0000E94A302CE014F960E94A30284E090E0DF
:100C00000E948D00FC016081CE0101960E944A0382
:100C100080910B0290910C020097C9F069817A8152
:100C20006115710591F040910D0250910E022D81D8
:100C30003E814217530748F00E9492098D819E81A0
:100C40009093100280930F0218C00E9419088981A6
:100C50009A8190930C0280930B028B819C819093DC
:100C60000E0280930D028D819E81909310028093DD
:100C70000F021A8219821C821B821E821D82CE01E3
:100C800001960E94A30263E271E0CE0101960E94E8
:100C9000790367E172E0CE0101960E94FF028C01A8
:100CA00048E050E064E371E00E94D102882309F437
:100CB00015C1C8010E945602CE0101960E94A302EE
:100CC00068E171E087E192E00E94330310926C01C9
:100CD00019C08D30B9F080916C01882359F01983C7
:100CE0001A8241E050E0BE016F5F7F4F87E192E0E2
:100CF0000E94D102143231F48DE391E00E946F0220
:100D0000B0926C011C8A1B8A1E8A1D8A188E1F8A4B
:100D10006BE072E0CE0143960E9462031A8E198E38
:100D20001C8E1B8E1E8E1D8E61E172E0CE014996D7
:100D30000E9462038D8D9E8D892B31F169E471E0F3
:100D4000898D9A8D0E948909892BF1F48B899C8960
:100D5000009721F00E949909862F01C080E00E942F
:100D6000C4016DE471E0CE0101960E947903BE01D9
:100D70006D5E7F4FCE0101960E94FF020E945602D7
:100D8000CE0101960E94A3028D8D9E8D892B31F19B
:100D900062E571E0898D9A8D0E948909892BF1F4B1
:100DA0008B899C89009721F00E949909862F01C0A8
:100DB00080E00E94C40166E571E0CE0101960E94C8
:100DC0007903BE016D5E7F4FCE0101960E94FF0246
:100DD0000E945602CE0101960E94A302CE014996BE
:100DE0000E94A302CE0143960E94A3020E94910199
:100DF00009CEB092650138CE84E00E94F1011C8AD0
:100E00001B8A1E8A1D8A188E1F8A4AE0BE016F5FE8
:100E10007F4F0E94C009BE016F5F7F4FCE01439696
:100E20000E94330366E571E0CE0101960E947903CA
:100E3000BE016D5E7F4FCE0101960E94FF020E94AF
:100E40005602CE0101960E94A302CE0143960E9453
:100E5000A30284E00E94F10121E0892B09F420E043
:100E6000209366011092650114CE85E00E94F10185
:100E70001C8A1B8A1E8A1D8A188E1F8A4AE0BE01A0
:100E80006F5F7F4F0E94C009BE016F5F7F4FCE0131
:100E900043960E9433036DE471E0CE0101960E94F7
:100EA0007903BE016D5E7F4FCE0101960E94FF0265
:100EB0000E945602CE0101960E94A302CE014396E3
:100EC0000E94A30285E00E94F10121E0892B09F430
:100ED00020E02093670110926501E8CDC8010E94CF
:100EE0009102E7CE8BE092E00E94A30281E192E0C2
:100EF0000E94A30287E192E00C94A302EE0FFF1F71
:100F00000590F491E02D0994CF93DF938230910501
:100F100010F482E090E0E0911F02F091200220E0C6
:100F200030E0C0E0D0E0309711F1408151814817A6
:100F30005907C0F04817590761F4828193812097BF
:100F400019F09B838A832BC09093200280931F0209
:100F500026C02115310519F04217530718F49A01DC
:100F6000BE01DF01EF010280F381E02DDCCF21150E
:100F7000310509F1281B390B2430310590F4129604
:100F80008D919C9113976115710521F0FB0193835D
:100F9000828304C09093200280931F02FD01329649
:100FA00044C0FD01E20FF31F819391932250310958
:100FB0002D933C933AC020911D0230911E02232BA9
:100FC00041F4209102013091030130931E022093DD
:100FD0001D0220910001309101012115310541F4DC
:100FE0002DB73EB74091040150910501241B350BEC
:100FF000E0911D02F0911E02E217F307A0F42E1BF0
:101000003F0B2817390778F0AC014E5F5F4F24176C
:10101000350748F04E0F5F1F50931E0240931D028C
:101020008193919302C0E0E0F0E0CF01DF91CF9196
:1010300008950F931F93CF93DF93009709F48CC00B
:10104000FC0132971382128200911F02109120023C
:101050000115110581F420813181820F931F2091A8
:101060001D0230911E022817390779F5F0931E02F0
:10107000E0931D0271C0D80140E050E0AE17BF07F9
:1010800050F412962D913C911397AD012115310525
:1010900009F1D901F3CF9D01DA0133832283608105
:1010A0007181860F971F8217930769F4EC012881DD
:1010B0003981260F371F2E5F3F4F318320838A816E
:1010C0009B8193838283452B29F4F0932002E09344
:1010D0001F0242C01396FC93EE931297ED014991C3
:1010E00059919E01240F351FE217F30771F4808197
:1010F0009181840F951F029611969C938E93828105
:10110000938113969C938E931297E0E0F0E0D801C0
:1011100012968D919C911397009719F0F8018C010C
:10112000F6CF8D919C9198012E5F3F4F820F931FB8
:1011300020911D0230911E022817390769F430975B
:1011400029F41092200210921F0202C01382128210
:1011500010931E0200931D02DF91CF911F910F91FA
:101160000895A0E0B0E0E7EBF8E00C941A0AEC0177
:10117000009721F4CB010E948407B8C0FC01E60F60
:10118000F71F9C0122503109E217F30708F4ACC0A5
:10119000D9010D911C91119706171707B0F0053072
:1011A000110508F49FC0C80104978617970708F433
:1011B00099C002501109061B170B019311936D93EF
:1011C0007C93CF010E9419088DC05B01A01AB10A5F
:1011D0004C01800E911EA0911F02B091200240E0B0
:1011E00050E0E12CF12C109709F44AC0A815B9057C
:1011F000D1F56D907C901197630182E0C80ED11CEF
:10120000CA14DB0480F1A3014A195B096A0182E078
:10121000C80ED11C1296BC9012971396AC91B5E0F3
:10122000CB16D10440F0B282A38351834083D9010D
:101230006D937C930AC00E5F1F4FC301800F911FF7
:10124000F90191838083EB2DFA2FE114F10431F041
:10125000D7011396FC93EE93129744C0F0932002AB
:10126000E0931F023FC08D919C9111974817590739
:1012700008F4AC017D0112960D90BC91A02DB3CF66
:1012800080911D0290911E0288159905E1F4461780
:101290005707C8F48091000190910101009741F433
:1012A0008DB79EB74091040150910501841B950BA9
:1012B000E817F907C8F4F0931E02E0931D02F90144
:1012C000718360830FC0CB010E9484077C0100976B
:1012D00059F0A801BE010E948009CE010E941908A0
:1012E000C70104C0CE0102C080E090E0CDB7DEB7F8
:1012F000EEE00C94360A81E090E0F8940C944D0AEC
:10130000FB01DC0102C001900D9241505040D8F722
:101310000895FB01DC018D91019080190110D9F332
:10132000990B0895FB01DC0101900D920020E1F77B
:1013300008951F93FC0199278827BC01E894119117
:101340001032E9F3193010F01E30C8F31B3251F09F
:101350001D3249F4689406C00E94CB09610F711DCB
:10136000811D911D119110531A30B0F33EF49095E8
:101370008095709561957F4F8F4F9F4F1F91089576
:10138000BB274A3031F4992322F4BDE29095819530
:101390009F4F0C94E109592F482F372F262F660FA6
:1013A000771F881F991F660F771F881F991F620F6D
:1013B000731F841F951F660F771F881F991F08953D
:1013C000BB27FB015527AA27880F991FAA1FA4171F
:1013D00010F0A41B83955051B9F7A05DAA3308F013
:1013E000A95DA193009779F7B111B1931192CB0147
:1013F0000C94030A91110C94130A803219F089504D
:101400008550C8F70895DC01FC01672F719177239F
:10141000E1F7329704C07C916D9370836291AE17AF
:10142000BF07C8F308959927882708952F923F9200
:101430004F925F926F927F928F929F92AF92BF92E4
:10144000CF92DF92EF92FF920F931F93CF93DF9390
:10145000CDB7DEB7CA1BDB0B0FB6F894DEBF0FBEED
:10146000CDBF09942A88398848885F846E847D843A
:101470008C849B84AA84B984C884DF80EE80FD803C
:101480000C811B81AA81B981CE0FD11D0FB6F894B2
:10149000DEBF0FBECDBFED01089510E0C2E6D0E083
:1014A00004C0FE010E947E072196C336D107C9F70A
:0414B000F894FFCFDE
:1014B400000021028000000000002801A400F100C7
:1014C400CF00E3006F010D0A007365747570207519
:1014D4006E6F00776172746F736320696E44617418
:1014E400613A20002C20776172746F9C006D616DED
:1014F4007920646F6C61726100706F6D00706F6D44
:0C1504002C00706F6400706F642C0000FD
:00000001FF
